HEADERESTQFO20230323101640.DAT                                                        
98553852I10001DD78630000122012023903506671C01847889000000640004000240                 
98553852N53001AC15020000217022023903506671C01851594100000640004000050                 
98553852S61001DD28460000128022023903506671C01852519800000640004000010                 
98553852G59001PA05830000227012023903506671C01848708300000640004000010                 
98553852J63001AC27010000227012023903506671C01848710500000640004000010                 
98553852V41001MB23010000124012023903506671C01848134000000640004000010                 
98553852A25001MB23010000124012023903506671C01848134300000640004000010                 
98553852E92001MB23010000124012023903506671C01848134400000640004000010                 
98553852F61001MB23010000124012023903506671C01848134800000640004000010                 
98553852V19001MB23010000124012023903506671C01848135000000640004000010                 
98553852V24001MB23010000124012023903506671C01848135100000640004000010                 
98553852V25001MB23010000124012023903506671C01848135400000640004000010                 
98553852I95001DD55170000228022023903506671C01852520000000640004000010                 
98553852S21001DD59270000128022023903506671C01852520300000640004000010                 
98553852S31001DD41170000128022023903506671C01852520400000640004000010                 
98553852S54001DD01450000327012023903506671C01848719300000640004000010                 
98553852V95001AE02AA0000113022023903506671C01850807200000640004000010                 
98553852A57001AC07020001007022023903506671C01849869500000640004000010                 
98553852D34001CF02230001010022023903506671C01850528900000640004000010                 
98553852E68001DD45230000316022023903506671C01851414900000640004000030                 
98553852B05001NN20370000407022023903506671C01849920000000640004000010                 
98553852M37001DD71060000409022023903506671C01850331200000640004000010                 
98553852B58001AC01420000323022023903506671C01851845300000640004000010                 
98553852G55001DD85460000223022023903506671C01851855400000640004000010                 
98553852P92001DD63450000111022023903506671C01850694200000640004000160                 
98553852B40001DD88360001015022023903506671C01851196100000640004000010                 
98553852B85001DD43310000419012023903506671C01847483600000640004000010                 
98553852Z10001DD63280000122012023903506671C01847888900000640004000030                 
98553852C68001ACE2050000517022023903506671C01851506300000640004000010                 
98553852P78001DD78960000209022023903506671C01850446100000640004000010                 
98553852M80001AC025 0000513022023903506671C01850701300000640004000010                 
98553852D96001ACE2040000517022023903506671C01851511600000640004000010                 
98553852G59001PA05970001015022023903506671C01851209900000640004000010                 
98553852J72001DD31490000124022023903506671C01852190500000640004000010                 
98553852C14001DD62840000224022023903506671C01852191000000640004000010                 
98553852D99001ACE0310000531012023903506671C01849065300000640004000010                 
98553852I14001MONT010000106022023903506671C01849825100000640004000030                 
98553852N52001NV09830000110032023903506671C01854139600000640004000010                 
98553852U09001MBPREV0000224012023903506671C01848233200000640004000010                 
98553852B77001MA02230000108022023903506671C01850110200000640004000010                 
98553852S16001AC23010000123012023903506671C01847953200000640004000010                 
98553852A36001AC02020000102022023903506671C01849292500000640004000010                 
98553852T08001AC25020000125022023903506671C01852246800000640004000010                 
98553852F44001AC25010000125012023903506671C01848288200000640004000010                 
98553852V27001AM23020000208022023903506671C01850114300000640004000020                 
98553852J85001NVM1000000308022023903506671C01850231300000640004000080                 
98553852P48001DD37780000526012023903506671C01848573200000640004000160                 
98553852C04001NM04010000123012023903506671C01847931000000640004000010                 
98553852N17001NM17010000123012023903506671C01847931300000640004000010                 
98553852R07001NM07010000123012023903506671C01847931500000640004000010                 
98553852U20001DD16430000227022023903506671C01852316400000640004000010                 
98553852R41001DD52250000308022023903506671C01850241600000640004000010                 
98553852C48001DD54760000127012023903506671C01848658100000640004000010                 
98553852C58001DD34490000127012023903506671C01848658200000640004000010                 
98553852C78001DD68080000127012023903506671C01848658800000640004000010                 
98553852H59001DD14240000317022023903506671C01851564300000640004000010                 
98553852X88001AC29730000231012023903506671C01849055000000640004000030                 
98553852N48001NV10890000231012023903506671C01849062600000640004000010                 
98553852S87001AC27010000127012023903506671C01848660600000640004000010                 
98553852E50001AC27010000127012023903506671C01848661000000640004000010                 
98553852X44001DD10960000527022023903506671C01852322300000640004000010                 
98553852S78001AC31010005031012023903506671C01849088600000640004000010                 
98553852B98001DD31010001501022023903506671C01849091600000640004000010                 
98553852M36001AC27010000127012023903506671C01848661500000640004000010                 
98553852I09001DD27760000124012023903506671C01848196700000640004000010                 
98553852P68001DD01480000524012023903506671C01848197700000640004000010                 
98553852B60001AC02020000102022023903506671C01849292600000640004000010                 
98553852C14001AC02020000102022023903506671C01849292700000640004000010                 
98553852H150018970AC0000527022023903506671C01852389000000640004000030                 
98553852H150018970AC0000527022023903506671C01852389000000640004000040                 
98553852H150018970AC0000527022023903506671C01852389000000640004000050                 
98553852L30001AC30010000130012023903506671C01848823900000640004000010                 
98553852F60001AC17020000317022023903506671C01851589400000640004000250                 
98553852C15001AC02020000102022023903506671C01849292800000640004000010                 
98553852J57001AC02020000102022023903506671C01849293000000640004000010                 
98553852R49001DD14730000224012023903506671C01848202800000640004000040                 
98553852U19001DD46400000516022023903506671C01851378600000640004000010                 
98553852V15001DD88490001030012023903506671C01848827100000640004000010                 
98553852J67001AC02020000202022023903506671C01849293800000640004000020                 
98553852G15001DJ02010000224012023903506671C01848210200000640004000030                 
98553852R81001MBPREV0000224012023903506671C01848213600000640004000010                 
98553852M76001DD81650000616022023903506671C01851394800000640004000010                 
98553852R69001DD02240000128022023903506671C01852599900000640004000010                 
98553852V43001AC13020000213022023903506671C01850744700000640004000010                 
98553852W25001DD93400000102022023903506671C01849304400000640004000010                 
98553852E92001EE89660000716022023903506671C01851445800000640004000010                 
98553852O02001DD54440001020022023903506671C01851670000000640004000020                 
98553852J37001AC17020001017022023903506671C01851482500000640004000010                 
98553852U27001DD98470000119012023903506671C01847588400000640004000010                 
98553852I95001AC12230000103022023903506671C01849478800000640004000050                 
98553852I96001AC12230000103022023903506671C01849478900000640004000020                 
98553852F38001DD00440000214022023903506671C01851006600000640004000020                 
98553852G59001PA05710000219012023903506671C01847608800000640004000010                 
98553852U05001DD69580000108022023903506671C01850254200000640004000030                 
98553852R40001DD54510000323022023903506671C01851969400000640004000030                 
98553852C47001DD11260000203022023903506671C01849463300000640004000010                 
98553852D47001DD30960000227012023903506671C01848764000000640004000010                 
98553852E01001EST0050000319012023903506671C01847590200000640004000130                 
98553854M65001DD09390001023012023903506671C01847932500000640004000010                 
98553852S31001AC12230000103022023903506671C01849479100000640004000070                 
98553852S21001AC12230000103022023903506671C01849479200000640004000020                 
98553852S45001AC12230000103022023903506671C01849479400000640004000080                 
98553852L45001AC14020000314022023903506671C01851022800000640004000060                 
98553852R81001DD88760000420012023903506671C01847771200000640004000010                 
98553852G87001MULT010000114022023903506671C01850963500000640004000010                 
98553852N46001NV09410000114022023903506671C01850964000000640004000010                 
98553852N57001NV09820000114022023903506671C01850964900000640004000010                 
98553852C47001DD11300000206022023903506671C01849795300000640004000010                 
98553852R33001DD01280000123012023903506671C01848003500000640004000030                 
98553852K15001DD28970000103022023903506671C01849479500000640004000010                 
98553852R97001AC03020000503022023903506671C01849480700000640004000010                 
98553852C31001DD20510000415022023903506671C01851220100000640004000030                 
98553852G41001MONT020001015022023903506671C01851226200000640004000010                 
98553852A21001DD33810000316022023903506671C01851330500000640004000010                 
98553852K30001DD47230000320012023903506671C01847771900000640004000010                 
98553852R08001AC20030000520012023903506671C01847794600000640004000010                 
98553852R10001AC20020000520012023903506671C01847795600000640004000010                 
98553852L49001DD26970000508022023903506671C01850259700000640004000030                 
98553852N27001NV09530000114022023903506671C01850965200000640004000010                 
98553852N28001NV09540000114022023903506671C01850966700000640004000010                 
98553852G63001ZZ00570000214022023903506671C01850999200000640004000020                 
98553852P78001DD78880000206022023903506671C01849843800000640004000010                 
98553852N09001NM09010000423012023903506671C01847905700000640004000010                 
98553852A60001DD02720000115022023903506671C01851157300000640004000010                 
98553852K94001DD25820000113022023903506671C01850845300000640004000010                 
98553852J59001MVN0010000223012023903506671C01848016000000640004000010                 
98553852J85001MVN0010000323012023903506671C01848016100000640004000010                 
98553852O28001MVN0010000123012023903506671C01848016200000640004000010                 
98553852I68001MONT010000223012023903506671C01848017400000640004000030                 
98553852I21001DD11910000203022023903506671C01849609100000640004000030                 
98553852D73001DD01330000123012023903506671C01847947500000640004000010                 
98553852A44001AC25010000125012023903506671C01848310000000640004000010                 
98553852S44001AC25010000125012023903506671C01848309900000640004000010                 
98553852E32001AC25010000125012023903506671C01848314300000640004000010                 
98553852J72001DD31630000102032023903506671C01853005400000640004000010                 
98553852S47001AC25010000125012023903506671C01848313000000640004000010                 
98553852J32001AC25010000125012023903506671C01848314800000640004000010                 
98553852M88001AC25010000125012023903506671C01848313200000640004000010                 
98553852M32001AC25010000125012023903506671C01848315100000640004000010                 
98553852M37001DD70630000124012023903506671C01848079600000640004000020                 
98553852L87001AC25010000125012023903506671C01848313400000640004000010                 
98553852A32001AC25010000125012023903506671C01848314000000640004000010                 
98553852D17001DD82380000123012023903506671C01847920000000640004000010                 
98553852J85001MBPREV0000923012023903506671C01847928100000640004000010                 
98553852N08001NM08010000623012023903506671C01847929600000640004000010                 
98553852N43001NM43010000723012023903506671C01847930700000640004000010                 
98553852G01001DDCF010000427022023903506671C01852285700000640004000010                 
98553852G04001DDCF010000427022023903506671C01852286000000640004000010                 
98553852X44001AC25010000225012023903506671C01848309300000640004000010                 
98553852K94001DD26110000127022023903506671C01852304400000640004000010                 
98553852T39001DD00940000227022023903506671C01852306200000640004000010                 
98553852S95001DD47110000308022023903506671C01850198300000640004000010                 
98553852J51001DD08420000108022023903506671C01850223000000640004000010                 
98553852J50001DD49840000108022023903506671C01850224100000640004000010                 
98553852G22001DDEF510001008022023903506671C01850226900000640004000010                 
98553852T20001DD36030000308022023903506671C01850144100000640004000010                 
98553852F39001NV10170000110032023903506671C01854140400000640004000010                 
98553852N47001NV09970000110032023903506671C01854140700000640004000010                 
98553852W36001AC15020000516022023903506671C01851277200000640004000110                 
98553852J88001MONT010000116022023903506671C01851305400000640004000010                 
98553852E49001AC13020000113022023903506671C01850755900000640004000010                 
98553852X84001AC16020000116022023903506671C01851278000000640004000010                 
98553852S98001AC13020000113022023903506671C01850756100000640004000010                 
98553852V15001DD40310000616022023903506671C01851327000000640004000080                 
98553852M88001DD14340000218022023903506671C01851653200000640004000010                 
98553852B55001DD78990000121022023903506671C01851710700000640004000020                 
98553852F82001DDC5410000628022023903506671C01852578800000640004000010                 
98553852O44001AC25010000125012023903506671C01848309400000640004000010                 
98553852N60001NM20530000128022023903506671C01852581600000640004000070                 
98553852W44001AC25010000125012023903506671C01848309600000640004000010                 
98553852J78001AC16020000116022023903506671C01851280000000640004000010                 
98553852L01001DD52600000124022023903506671C01852158000000640004000020                 
98553852U25001DD15560000224022023903506671C01852165900000640004000010                 
98553852D35001DD40730000731012023903506671C01849038600000640004000020                 
98553852A82001DD23020000220012023903506671C01847690700000640004000020                 
98553852T04001DD11760000220012023903506671C01847692900000640004000010                 
98553852N37001AC20010000120012023903506671C01847808000000640004000050                 
98553852G41001CAMP010001010022023903506671C01850498100000640004000010                 
98553852C37001DD65460000210022023903506671C01850500300000640004000160                 
98553852F25001DD88200000214022023903506671C01851042200000640004000010                 
98553852J63001AC03020001503022023903506671C01849539800000640004000140                 
98553852N88001AC20010000220012023903506671C01847813600000640004000010                 
98553852D01001DD02050000201022023903506671C01849243400000640004000120                 
98553852V79001EST1560000209022023903506671C01850317500000640004000010                 
98553852C31001DD19010000219012023903506671C01847499100000640004000010                 
98553852K26001DD83380000319012023903506671C01847511900000640004000020                 
98553852C37001DD65530000314022023903506671C01850904700000640004000010                 
98553852Z13001AC09930000414022023903506671C01850916100000640004000070                 
98553852N60001NM19080000530012023903506671C01848905500000640004000010                 
98553854M39001AS30010000530012023903506671C01848906800000640004000040                 
98553852B06001AC19010000120012023903506671C01847681000000640004000010                 
98553852C06001AC19010000120012023903506671C01847681100000640004000010                 
98553852G06001AC19010000120012023903506671C01847681300000640004000010                 
98553852V47001NV01230000220012023903506671C01847687500000640004000020                 
98553852V34001DD48230000308022023903506671C01850101200000640004000110                 
98553852E20001AC23010000223012023903506671C01848019700000640004000220                 
98553852G07001DD42810000913022023903506671C01850699400000640004000020                 
98553852D34001CF14020002014022023903506671C01851053700000640004000010                 
98553852S28001DD44250000310022023903506671C01850642600000640004000040                 
98553852S74001DD64870000325012023903506671C01848279600000640004000370                 
98553852C54001DD64590001523012023903506671C01848033800000640004000010                 
98553852T34001FE17230000114022023903506671C01851048900000640004000010                 
98553852T44001FE17230000114022023903506671C01851049000000640004000010                 
98553852T55001FE17230000114022023903506671C01851049100000640004000010                 
98553852T33001FE17230000114022023903506671C01851049200000640004000010                 
98553852T24001FE17230000114022023903506671C01851049300000640004000010                 
98553852T26001FE17230000114022023903506671C01851049400000640004000010                 
98553852C72001AC04100000214022023903506671C01851071400000640004000030                 
98553852S41001TDMON10000116032023903506671C01855096400000640004000040                 
98553852J37001TDMON10000116032023903506671C01855076500000640004000040                 
TRAILLER00212                                                                         
