HEADERESTQFO20230512161117.DAT                                                        
98553852M11001TDMON10000116032023903506671C01855084000000640004000040                 
98553852S87001TDMON10000116032023903506671C01855098200000640004000040                 
98553852T04001TDMON10000116032023903506671C01855098700000640004000040                 
98553852A50001N585160000127042023903506671C01860277400000640004000010                 
98553852D08001DDFD390000401052023903506671C01860593500000640004000010                 
98553852L71001FAG0440000102052023903506671C01860632200000640004000050                 
98553852J59001LAIL200000603052023903506671C01860829800000640004000020                 
98553852K15001DD30980000204052023903506671C01861033400000640004000010                 
98553852T14001DD82350000208052023903506671C01861493800000640004000010                 
98553852T89001DD49860000408052023903506671C01861538100000640004000040                 
98553852T74001OF42090000208052023903506671C01861548000000640004000020                 
TRAILLER00013                                                                         
