HEADERESTQFO20230202102057.DAT                                                        
98553852L56001PREVMB0000619012023903506671C01847431800000640004000010                 
98553852L58001PREVMB0000319012023903506671C01847432000000640004000010                 
98553852N27001PREVMB0000219012023903506671C01847435900000640004000010                 
98553852N28001PREVMB0000219012023903506671C01847436000000640004000010                 
98553852M11001PREVMB0000219012023903506671C01847433200000640004000010                 
98553852M35001PREVMB0000319012023903506671C01847433600000640004000010                 
98553852M37001PREVMB0000519012023903506671C01847433800000640004000010                 
98553852N37001PREVMB0000219012023903506671C01847436200000640004000010                 
98553852N46001PREVMB0000119012023903506671C01847436300000640004000010                 
98553852N47001PREVMB0000219012023903506671C01847436400000640004000010                 
98553852N48001PREVMB0000319012023903506671C01847436500000640004000010                 
98553852N52001PREVMB0000119012023903506671C01847436600000640004000010                 
98553852N57001PREVMB0000219012023903506671C01847436800000640004000010                 
98553852N88001PREVMB0000419012023903506671C01847437100000640004000010                 
98553852O02001PREVMB0000319012023903506671C01847437300000640004000010                 
98553852O04001PREVMB0000219012023903506671C01847437400000640004000010                 
98553852O06001PREVMB0000119012023903506671C01847437500000640004000010                 
98553852P26001PREVMB0000219012023903506671C01847438700000640004000010                 
98553852P27001PREVMB0000219012023903506671C01847438800000640004000010                 
98553852P92001PREVMB0000319012023903506671C01847439600000640004000010                 
98553852Q57001PREVMB0000119012023903506671C01847439900000640004000010                 
98553852R33001PREVMB0000219012023903506671C01847440700000640004000010                 
98553852R40001PREVMB0000119012023903506671C01847440800000640004000010                 
98553852R41001PREVMB0000219012023903506671C01847440900000640004000010                 
98553852R49001PREVMB0000319012023903506671C01847441100000640004000010                 
98553852R56001PREVMB0000919012023903506671C01847441300000640004000010                 
98553852S08001PREVMB0000619012023903506671C01847442600000640004000010                 
98553852S21001PREVMB0000319012023903506671C01847442900000640004000010                 
98553852S31001PREVMB0000519012023903506671C01847443100000640004000010                 
98553852S41001PREVMB0000519012023903506671C01847443500000640004000010                 
98553852S45001PREVMB0001319012023903506671C01847443700000640004000010                 
98553852S61001PREVMB0000419012023903506671C01847444200000640004000010                 
98553852S74001PREVMB0001219012023903506671C01847444900000640004000010                 
98553852S79001PREVMB0000119012023903506671C01847445100000640004000010                 
98553852A21001PREVMB0000619012023903506671C01847411600000640004000010                 
98553852A60001PREVMB0000219012023903506671C01847413000000640004000010                 
98553852S91001PREVMB0000319012023903506671C01847445200000640004000010                 
98553852S95001PREVMB0000819012023903506671C01847445300000640004000010                 
98553852T20001PREVMB0000219012023903506671C01847445900000640004000010                 
98553852T21001PREVMB0000519012023903506671C01847446000000640004000010                 
98553852T74001PREVMB0000419012023903506671C01847448000000640004000010                 
98553852B48001PREVMB0000519012023903506671C01847414000000640004000010                 
98553852B55001PREVMB0000319012023903506671C01847414100000640004000010                 
98553852C35001PREVMB0000619012023903506671C01847416100000640004000010                 
98553852C37001PREVMB0000619012023903506671C01847416200000640004000010                 
98553852C54001PREVMB0001319012023903506671C01847416500000640004000010                 
98553852U05001PREVMB0000519012023903506671C01847448600000640004000010                 
98553852U19001PREVMB0000919012023903506671C01847449200000640004000010                 
98553852U25001PREVMB0000419012023903506671C01847449500000640004000010                 
98553852U27001PREVMB0000519012023903506671C01847449600000640004000010                 
98553852U30001PREVMB0000219012023903506671C01847449700000640004000010                 
98553852V25001PREVMB0000619012023903506671C01847450400000640004000010                 
98553852V27001PREVMB0000319012023903506671C01847450500000640004000010                 
98553852V34001PREVMB0000219012023903506671C01847450600000640004000010                 
98553852V41001PREVMB0000319012023903506671C01847450800000640004000010                 
98553852V43001PREVMB0000419012023903506671C01847450900000640004000010                 
98553852V44001PREVMB0000319012023903506671C01847451000000640004000010                 
98553852V46001PREVMB0000319012023903506671C01847451100000640004000010                 
98553852V47001PREVMB0000319012023903506671C01847451200000640004000010                 
98553852C71001PREVMB0000319012023903506671C01847417000000640004000010                 
98553852C85001PREVMB0000319012023903506671C01847417700000640004000010                 
98553852C90001PREVMB0000219012023903506671C01847417800000640004000010                 
98553852D01001PREVMB0000519012023903506671C01847417900000640004000010                 
98553852D17001PREVMB0000419012023903506671C01847418200000640004000010                 
98553852D35001PREVMB0000619012023903506671C01847418500000640004000010                 
98553852D47001PREVMB0000319012023903506671C01847418600000640004000010                 
98553852D96001PREVMB0000719012023903506671C01847418900000640004000010                 
98553852D97001PREVMB0000519012023903506671C01847419000000640004000010                 
98553852E16001PREVMB0000419012023903506671C01847419500000640004000010                 
98553852V79001PREVMB0000119012023903506671C01847451600000640004000010                 
98553852W25001PREVMB0000819012023903506671C01847452200000640004000010                 
98553852X11001PREVMB0000919012023903506671C01847452600000640004000010                 
98553852X12001PREVMB0000119012023903506671C01847452700000640004000010                 
98553852X21001PREVMB0001019012023903506671C01847453000000640004000010                 
98553852X35001PREVMB0001019012023903506671C01847453100000640004000010                 
98553852X41001PREVMB0000419012023903506671C01847453200000640004000010                 
98553852X54001PREVMB0000519012023903506671C01847453500000640004000010                 
98553852X84001PREVMB0000319012023903506671C01847453700000640004000010                 
98553852X99001PREVMB0000519012023903506671C01847453800000640004000010                 
98553852Y21001PREVMB0000219012023903506671C01847453900000640004000010                 
98553852Y22001PREVMB0000219012023903506671C01847454000000640004000010                 
98553852Z10001PREVMB0000919012023903506671C01847454100000640004000010                 
98553852E29001PREVMB0000419012023903506671C01847419700000640004000010                 
98553852E32001PREVMB0000119012023903506671C01847419800000640004000010                 
98553852E47001PREVMB0000219012023903506671C01847419900000640004000010                 
98553852E49001PREVMB0000319012023903506671C01847420100000640004000010                 
98553852E56001PREVMB0000219012023903506671C01847420300000640004000010                 
98553852E61001PREVMB0000319012023903506671C01847420400000640004000010                 
98553852E92001PREVMB0000519012023903506671C01847420600000640004000010                 
98553852F25001PREVMB0000519012023903506671C01847421000000640004000010                 
98553852F38001PREVMB0000119012023903506671C01847421200000640004000010                 
98553852F39001PREVMB0000219012023903506671C01847421300000640004000010                 
98553852F57001PREVMB0000519012023903506671C01847422000000640004000010                 
98553852F60001PREVMB0000319012023903506671C01847422100000640004000010                 
98553852F61001PREVMB0000319012023903506671C01847422200000640004000010                 
98553852Z21001PREVMB0000119012023903506671C01847454300000640004000010                 
98553852Z22001PREVMB0000319012023903506671C01847454400000640004000010                 
98553852Z23001PREVMB0000219012023903506671C01847454500000640004000010                 
98553852G06001PREVMB0000119012023903506671C01847422900000640004000010                 
98553852G07001PREVMB0000519012023903506671C01847423000000640004000010                 
98553852G29001PREVMB0000319012023903506671C01847423500000640004000010                 
98553852G60001PREVMB0000419012023903506671C01847424400000640004000010                 
98553852G63001PREVMB0000119012023903506671C01847424500000640004000010                 
98553852H07001PREVMB0000219012023903506671C01847424900000640004000010                 
98553852H29001PREVMB0000219012023903506671C01847425200000640004000010                 
98553852H35001PREVMB0000219012023903506671C01847425300000640004000010                 
98553852H56001PREVMB0001319012023903506671C01847425400000640004000010                 
98553852H60001PREVMB0000219012023903506671C01847425600000640004000010                 
98553852I09001PREVMB0000219012023903506671C01847425700000640004000010                 
98553852I10001PREVMB0000619012023903506671C01847425800000640004000010                 
98553852I21001PREVMB0000319012023903506671C01847426000000640004000010                 
98553852I56001PREVMB0001119012023903506671C01847426300000640004000010                 
98553852I62001PREVMB0000119012023903506671C01847426400000640004000010                 
98553852I90001PREVMB0000219012023903506671C01847426700000640004000010                 
98553852I95001PREVMB0001419012023903506671C01847426800000640004000010                 
98553852I96001PREVMB0000219012023903506671C01847426900000640004000010                 
98553852J06001PREVMB0000419012023903506671C01847427000000640004000010                 
98553852J07001PREVMB0000719012023903506671C01847427100000640004000010                 
98553852J30001PREVMB0000719012023903506671C01847427300000640004000010                 
98553852J31001PREVMB0000219012023903506671C01847427400000640004000010                 
98553852J32001PREVMB0000119012023903506671C01847427500000640004000010                 
98553852J36001PREVMB0000819012023903506671C01847427600000640004000010                 
98553852J38001PREVMB0000419012023903506671C01847427800000640004000010                 
98553852J47001PREVMB0000119012023903506671C01847427900000640004000010                 
98553852J50001PREVMB0000619012023903506671C01847428000000640004000010                 
98553852J51001PREVMB0000319012023903506671C01847428100000640004000010                 
98553852J57001PREVMB0001119012023903506671C01847428200000640004000010                 
98553852J63001PREVMB0000619012023903506671C01847428400000640004000010                 
98553852J72001PREVMB0000619012023903506671C01847428700000640004000010                 
98553852J77001PREVMB0000219012023903506671C01847428800000640004000010                 
98553852J78001PREVMB0000319012023903506671C01847428900000640004000010                 
98553852J94001PREVMB0000719012023903506671C01847429200000640004000010                 
98553852K15001PREVMB0000519012023903506671C01847429400000640004000010                 
98553852K18001PREVMB0000719012023903506671C01847429500000640004000010                 
98553852K26001PREVMB0000419012023903506671C01847429700000640004000010                 
98553852K77001PREVMB0000219012023903506671C01847430000000640004000010                 
98553852K94001PREVMB0000619012023903506671C01847430200000640004000010                 
98553852K99001PREVMB0000519012023903506671C01847430300000640004000010                 
98553852L10001PREVMB0000219012023903506671C01847430500000640004000010                 
98553852L30001PREVMB0000519012023903506671C01847431000000640004000010                 
98553852L35001PREVMB0000519012023903506671C01847431200000640004000010                 
98553852L40001PREVMB0000219012023903506671C01847431300000640004000010                 
98553852L49001PREVMB0000519012023903506671C01847431700000640004000010                 
TRAILLER00145                                                                         
