HEADERESTQFO20230405143346.DAT                                                        
98553852A57001DD01030000203032023903506671C01853129100000640004000010                 
98553852F50001PE65580000609032023903506671C01853926800000640004000160                 
98553852D17001DD83990000603032023903506671C01853251700000640004000010                 
98553852F95001DD03150000509032023903506671C01853938800000640004000010                 
98553852P69001DD03120000209032023903506671C01853972300000640004000010                 
98553852J37001AC02030000902032023903506671C01852860500000640004000010                 
98553852D18001DD03020000204032023903506671C01853279000000640004000010                 
98553852P39001DD03050000204032023903506671C01853279700000640004000010                 
98553852P92001DD63650000313032023903506671C01854464900000640004000080                 
98553852S54001DD03170000307032023903506671C01853686200000640004000010                 
98553852J06001AC08030000108032023903506671C01853733800000640004000010                 
98553852C15001DD55440000114032023903506671C01854553600000640004000020                 
98553852E54001AC08030000108032023903506671C01853734100000640004000010                 
98553852C09001DD46190000206032023903506671C01853339300000640004000010                 
98553852A38001AC08030000108032023903506671C01853734500000640004000010                 
98553852M33001DD17840000208032023903506671C01853746500000640004000080                 
98553852B40001DD88490000507032023903506671C01853582800000640004000010                 
98553852F82001DDC5440000309032023903506671C01853890500000640004000010                 
98553852N37001NV11060000110032023903506671C01854137600000640004000010                 
98553852D97001DD60760000110032023903506671C01854215100000640004000010                 
98553852S68001DD35780000503032023903506671C01853212200000640004000060                 
98553852S160012255790001004032023903506671C01853300300000640004000010                 
98553852B15001DD03090000505032023903506671C01853302900000640004000090                 
98553852T21001DD42680000307032023903506671C01853526600000640004000010                 
98553852S41001AC12230000103022023903506671C01849479000000640004000020                 
98553852O12001DD03130000108032023903506671C01853828700000640004000010                 
98553852M65001DD09390001023012023903506671C01847932500000640004000020                 
98553852R97001AC03020000503022023903506671C01849480700000640004000010                 
98553852J30001DD71490000406032023903506671C01853443700000640004000010                 
98553852S71001DD05130001006032023903506671C01853448900000640004000010                 
98553852S65001DD00200001506032023903506671C01853449900000640004000010                 
98553852S85001DD00740001506032023903506671C01853450500000640004000010                 
98553852J72001DD31590000201032023903506671C01852790500000640004000010                 
98553852C15001DD55330000201032023903506671C01852791400000640004000010                 
98553852J57001DD43370000201032023903506671C01852791500000640004000010                 
98553852M11001DD34300000102032023903506671C01852903900000640004000010                 
98553852S36001MULT030000106032023903506671C01853371200000640004000010                 
98553852C08001DD22120000106032023903506671C01853383600000640004000010                 
98553852A39001AC08030000108032023903506671C01853733200000640004000010                 
98553852R48001DD41420000111032023903506671C01854315700000640004000010                 
98553852S64001DD27230000213032023903506671C01854460300000640004000020                 
98553852N48001NV10960000110032023903506671C01854140800000640004000010                 
98553852N46001NV09450000110032023903506671C01854141100000640004000010                 
98553852N57001NV09850000110032023903506671C01854141300000640004000010                 
98553852N27001NV09580000110032023903506671C01854142000000640004000010                 
98553852N28001NV09580000110032023903506671C01854144600000640004000010                 
98553852N88001NV01180000110032023903506671C01854145000000640004000010                 
98553852N52001NV09800000114022023903506671C01850946700000640004000010                 
98553852F39001NV10140000114022023903506671C01850947300000640004000010                 
98553852N47001NV09940000114022023903506671C01850948500000640004000010                 
98553852D99001DSC0110000211032023903506671C01854297800000640004000010                 
98553852J72001AC16020000116022023903506671C01851278800000640004000010                 
98553852M39001AS30010000530012023903506671C01848906800000640004000090                 
98553852E32001TDMON10000116032023903506671C01855042100000640004000040                 
98553852N46001TDMON10000116032023903506671C01855053900000640004000040                 
98553852C35001TDMON10000116032023903506671C01855054100000640004000040                 
98553852N52001TDMON10000116032023903506671C01855054500000640004000040                 
98553852D99001TDMON10000116032023903506671C01855066000000640004000040                 
98553852E11001TDMON10000116032023903506671C01855066200000640004000040                 
98553852I14001TDMON10000116032023903506671C01855072900000640004000040                 
98553852L56001TDMON10000116032023903506671C01855082100000640004000040                 
98553852L58001TDMON10000116032023903506671C01855082300000640004000040                 
98553852O54001TDMON10000116032023903506671C01855089200000640004000040                 
98553852P09001TDMON10000116032023903506671C01855089400000640004000040                 
98553852S31001TDMON10000116032023903506671C01855095900000640004000040                 
98553852U25001TDMON10000116032023903506671C01855103100000640004000040                 
98553852U27001TDMON10000116032023903506671C01855103200000640004000040                 
98553852V01001TDMON10000116032023903506671C01855103400000640004000040                 
98553852R94001DD15600000315032023903506671C01854878900000640004000010                 
98553852A81001TDMON10000116032023903506671C01855042200000640004000040                 
98553852E47001TDMON10000116032023903506671C01855042600000640004000040                 
98553852N94001TDMON10000116032023903506671C01855055000000640004000040                 
98553852C47001TDMON10000116032023903506671C01855055200000640004000040                 
98553852P04001TDMON10000116032023903506671C01855055500000640004000040                 
98553852E15001TDMON10000116032023903506671C01855066400000640004000040                 
98553852E16001TDMON10000116032023903506671C01855066500000640004000040                 
98553852I62001TDMON10000116032023903506671C01855073300000640004000040                 
98553852P26001TDMON10000116032023903506671C01855089500000640004000040                 
98553852P27001TDMON10000116032023903506671C01855089600000640004000040                 
98553852P28001TDMON10000116032023903506671C01855089700000640004000040                 
98553852S38001TDMON10000116032023903506671C01855096300000640004000040                 
98553852V19001TDMON10000116032023903506671C01855103600000640004000040                 
98553852V24001TDMON10000116032023903506671C01855103700000640004000040                 
98553852T68001AC15030000215032023903506671C01854777900000640004000010                 
98553852M39001AC15030002015032023903506671C01854726600000640004000010                 
98553852B06001TDMON10000116032023903506671C01855042700000640004000040                 
98553852E48001TDMON10000116032023903506671C01855042900000640004000040                 
98553852B29001TDMON10000116032023903506671C01855043000000640004000040                 
98553852C48001TDMON10000116032023903506671C01855055600000640004000040                 
98553852P08001TDMON10000116032023903506671C01855056000000640004000040                 
98553852C54001TDMON10000116032023903506671C01855056200000640004000040                 
98553852E56001TDMON10000116032023903506671C01855067200000640004000040                 
98553852I96001TDMON10000116032023903506671C01855075100000640004000040                 
98553852P48001TDMON10000116032023903506671C01855089900000640004000040                 
98553852P53001TDMON10000116032023903506671C01855090100000640004000040                 
98553852S45001TDMON10000116032023903506671C01855096600000640004000040                 
98553852S46001TDMON10000116032023903506671C01855096700000640004000040                 
98553852S47001TDMON10000116032023903506671C01855096800000640004000040                 
98553852V25001TDMON10000116032023903506671C01855103800000640004000040                 
98553852V34001TDMON10000116032023903506671C01855104000000640004000040                 
98553852V43001TDMON10000116032023903506671C01855104100000640004000040                 
98553852B40001TDMON10000116032023903506671C01855044100000640004000040                 
98553852F60001TDMON10000116032023903506671C01855044200000640004000040                 
98553852C59001TDMON10000116032023903506671C01855057400000640004000040                 
98553852E92001TDMON10000116032023903506671C01855067500000640004000040                 
98553852E95001TDMON10000116032023903506671C01855067600000640004000040                 
98553852J23001TDMON10000116032023903506671C01855075900000640004000040                 
98553852J30001TDMON10000116032023903506671C01855076100000640004000040                 
98553852L89001TDMON10000116032023903506671C01855083600000640004000040                 
98553852L92001TDMON10000116032023903506671C01855083800000640004000040                 
98553852L93001TDMON10000116032023903506671C01855083900000640004000040                 
98553852P59001TDMON10000116032023903506671C01855090200000640004000040                 
98553852P68001TDMON10000116032023903506671C01855090300000640004000040                 
98553852P78001TDMON10000116032023903506671C01855090600000640004000040                 
98553852S61001TDMON10000116032023903506671C01855097100000640004000040                 
98553852S64001TDMON10000116032023903506671C01855097200000640004000040                 
98553852V44001TDMON10000116032023903506671C01855104200000640004000040                 
98553852V46001TDMON10000116032023903506671C01855104300000640004000040                 
98553852V65001TDMON10000116032023903506671C01855104400000640004000040                 
98553852V72001TDMON10000116032023903506671C01855104500000640004000040                 
98553852N60001NM22520000324032023903506671C01856190800000640004000010                 
98553852B43001TDMON10000116032023903506671C01855044400000640004000040                 
98553852G04001TDMON10000116032023903506671C01855044500000640004000040                 
98553852B45001TDMON10000116032023903506671C01855044600000640004000040                 
98553852C66001TDMON10000116032023903506671C01855057900000640004000040                 
98553852F18001TDMON10000116032023903506671C01855067700000640004000040                 
98553852F38001TDMON10000116032023903506671C01855068000000640004000040                 
98553852J31001TDMON10000116032023903506671C01855076200000640004000040                 
98553852J32001TDMON10000116032023903506671C01855076300000640004000040                 
98553852M11001TDMON10000116032023903506671C01855084000000640004000040                 
98553852M32001TDMON10000116032023903506671C01855084300000640004000040                 
98553852P92001TDMON10000116032023903506671C01855090800000640004000040                 
98553852Q44001TDMON10000116032023903506671C01855091100000640004000040                 
98553852S68001TDMON10000116032023903506671C01855097500000640004000040                 
98553852S71001TDMON10000116032023903506671C01855097600000640004000040                 
98553852V79001TDMON10000116032023903506671C01855104600000640004000040                 
98553852V86001TDMON10000116032023903506671C01855104800000640004000040                 
98553852V95001TDMON10000116032023903506671C01855104900000640004000040                 
98553852I21001DD12250000327032023903506671C01856389100000640004000010                 
98553852G22001TDMON10000116032023903506671C01855045000000640004000040                 
98553852G29001TDMON10000116032023903506671C01855045500000640004000040                 
98553852R49001TDMON10000116032023903506671C01855058300000640004000040                 
98553852C68001TDMON10000116032023903506671C01855058600000640004000040                 
98553852R51001TDMON10000116032023903506671C01855058800000640004000040                 
98553852F39001TDMON10000116032023903506671C01855068100000640004000040                 
98553852F42001TDMON10000116032023903506671C01855068200000640004000040                 
98553852F44001TDMON10000116032023903506671C01855068300000640004000040                 
98553852J47001TDMON10000116032023903506671C01855076700000640004000040                 
98553852J50001TDMON10000116032023903506671C01855076900000640004000040                 
98553852M35001TDMON10000116032023903506671C01855084500000640004000040                 
98553852M36001TDMON10000116032023903506671C01855084600000640004000040                 
98553852M37001TDMON10000116032023903506671C01855084700000640004000040                 
98553852Q57001TDMON10000116032023903506671C01855091300000640004000040                 
98553852Q61001TDMON10000116032023903506671C01855091400000640004000040                 
98553852S78001TDMON10000116032023903506671C01855098000000640004000040                 
98553852S79001TDMON10000116032023903506671C01855098100000640004000040                 
98553852S87001TDMON10000116032023903506671C01855098200000640004000040                 
98553852S91001TDMON10000116032023903506671C01855098300000640004000040                 
98553852H16001TDMON10000116032023903506671C01855045800000640004000040                 
98553852B58001TDMON10000116032023903506671C01855046000000640004000040                 
98553852H56001TDMON10000116032023903506671C01855046300000640004000040                 
98553852R64001TDMON10000116032023903506671C01855059200000640004000040                 
98553852C72001TDMON10000116032023903506671C01855059300000640004000040                 
98553852F52001TDMON10000116032023903506671C01855068500000640004000040                 
98553852F57001TDMON10000116032023903506671C01855068600000640004000040                 
98553852F61001TDMON10000116032023903506671C01855068800000640004000040                 
98553852J51001TDMON10000116032023903506671C01855077200000640004000040                 
98553852J59001TDMON10000116032023903506671C01855077300000640004000040                 
98553852J63001TDMON10000116032023903506671C01855077400000640004000040                 
98553852M49001TDMON10000116032023903506671C01855084900000640004000040                 
98553852M51001TDMON10000116032023903506671C01855085000000640004000040                 
98553852M52001TDMON10000116032023903506671C01855085100000640004000040                 
98553852Q69001TDMON10000116032023903506671C01855091700000640004000040                 
98553852S95001TDMON10000116032023903506671C01855098400000640004000040                 
98553852T04001TDMON10000116032023903506671C01855098700000640004000040                 
98553852T08001TDMON10000116032023903506671C01855098800000640004000040                 
98553852X11001TDMON10000116032023903506671C01855105300000640004000040                 
98553852X15001TDMON10000116032023903506671C01855105600000640004000040                 
98553852A05001TDMON10000116032023903506671C01855038700000640004000040                 
98553852A13001TDMON10000116032023903506671C01855038800000640004000040                 
98553852A21001TDMON10000116032023903506671C01855038900000640004000040                 
98553852H59001TDMON10000116032023903506671C01855046800000640004000040                 
98553852R77001TDMON10000116032023903506671C01855059700000640004000040                 
98553852C77001TDMON10000116032023903506671C01855060200000640004000040                 
98553852R81001TDMON10000116032023903506671C01855060300000640004000040                 
98553852C78001TDMON10000116032023903506671C01855060600000640004000040                 
98553852F82001TDMON10000116032023903506671C01855069100000640004000040                 
98553852G01001TDMON10000116032023903506671C01855069300000640004000040                 
98553852M56001TDMON10000116032023903506671C01855085200000640004000040                 
98553852M65001TDMON10000116032023903506671C01855085300000640004000040                 
98553852M69001TDMON10000116032023903506671C01855085400000640004000040                 
98553852Q78001TDMON10000116032023903506671C01855091900000640004000040                 
98553852R03001TDMON10000116032023903506671C01855092300000640004000040                 
98553852T24001TDMON10000116032023903506671C01855099300000640004000040                 
98553852X35001TDMON10000116032023903506671C01855106100000640004000040                 
98553852X41001TDMON10000116032023903506671C01855106200000640004000040                 
98553852A25001TDMON10000116032023903506671C01855039100000640004000040                 
98553852A69001TDMON10000116032023903506671C01855039300000640004000040                 
98553852I56001TDMON10000116032023903506671C01855047300000640004000040                 
98553852I68001TDMON10000116032023903506671C01855047900000640004000040                 
98553852S51001TDMON10000116032023903506671C01855060800000640004000040                 
98553852C83001TDMON10000116032023903506671C01855061000000640004000040                 
98553852S74001TDMON10000116032023903506671C01855061200000640004000040                 
98553852C85001TDMON10000116032023903506671C01855061700000640004000040                 
98553852G02001TDMON10000116032023903506671C01855069400000640004000040                 
98553852G03001TDMON10000116032023903506671C01855069600000640004000040                 
98553852G07001TDMON10000116032023903506671C01855069700000640004000040                 
98553852J78001TDMON10000116032023903506671C01855078000000640004000040                 
98553852J85001TDMON10000116032023903506671C01855078100000640004000040                 
98553852J88001TDMON10000116032023903506671C01855078200000640004000040                 
98553852J97001TDMON10000116032023903506671C01855078300000640004000040                 
98553852M76001TDMON10000116032023903506671C01855085600000640004000040                 
98553852M78001TDMON10000116032023903506671C01855085800000640004000040                 
98553852R10001TDMON10000116032023903506671C01855092400000640004000040                 
98553852R19001TDMON10000116032023903506671C01855092500000640004000040                 
98553852T26001TDMON10000116032023903506671C01855099400000640004000040                 
98553852T29001TDMON10000116032023903506671C01855099600000640004000040                 
98553852T33001TDMON10000116032023903506671C01855099700000640004000040                 
98553852X73001TDMON10000116032023903506671C01855106500000640004000040                 
98553852A82001TDMON10000116032023903506671C01855039500000640004000040                 
98553852A32001TDMON10000116032023903506671C01855039600000640004000040                 
98553852B15001TDMON10000116032023903506671C01855039800000640004000040                 
98553852T25001TDMON10000116032023903506671C01855062300000640004000040                 
98553852T31001TDMON10000116032023903506671C01855062700000640004000040                 
98553852G15001TDMON10000116032023903506671C01855069800000640004000040                 
98553852G16001TDMON10000116032023903506671C01855070000000640004000040                 
98553852G34001TDMON10000116032023903506671C01855070200000640004000040                 
98553852K16001TDMON10000116032023903506671C01855078500000640004000040                 
98553852K24001TDMON10000116032023903506671C01855078900000640004000040                 
98553852M99001TDMON10000116032023903506671C01855086200000640004000040                 
98553852R22001TDMON10000116032023903506671C01855092700000640004000040                 
98553852R33001TDMON10000116032023903506671C01855092800000640004000040                 
98553852R41001TDMON10000116032023903506671C01855093000000640004000040                 
98553852T36001TDMON10000116032023903506671C01855099800000640004000040                 
98553852T39001TDMON10000116032023903506671C01855100100000640004000040                 
98553852T42001TDMON10000116032023903506671C01855100200000640004000040                 
98553852Y22001TDMON10000116032023903506671C01855106800000640004000040                 
98553852Z10001TDMON10000116032023903506671C01855106900000640004000040                 
98553852Z13001TDMON10000116032023903506671C01855107000000640004000040                 
98553852C47001TDMON20000116032023903506671C01855040000000640004000040                 
98553852B86001TDMON10000116032023903506671C01855049100000640004000040                 
98553852J77001TDMON10000116032023903506671C01855049300000640004000040                 
98553852C91001TDMON10000116032023903506671C01855062900000640004000040                 
98553852T34001TDMON10000116032023903506671C01855063000000640004000040                 
98553852T58001TDMON10000116032023903506671C01855063400000640004000040                 
98553852G40001TDMON10000116032023903506671C01855070500000640004000040                 
98553852G41001TDMON10000116032023903506671C01855070600000640004000040                 
98553852K26001TDMON10000116032023903506671C01855079000000640004000040                 
98553852K27001TDMON10000116032023903506671C01855079100000640004000040                 
98553852N09001TDMON10000116032023903506671C01855086400000640004000040                 
98553852N27001TDMON10000116032023903506671C01855086600000640004000040                 
98553852N28001TDMON10000116032023903506671C01855086700000640004000040                 
98553852R52001TDMON10000116032023903506671C01855093200000640004000040                 
98553852R56001TDMON10000116032023903506671C01855093400000640004000040                 
98553852R57001TDMON10000116032023903506671C01855093500000640004000040                 
98553852T44001TDMON10000116032023903506671C01855100300000640004000040                 
98553852Z21001TDMON10000116032023903506671C01855107100000640004000040                 
98553852Z22001TDMON10000116032023903506671C01855107300000640004000040                 
98553852Z23001TDMON10000116032023903506671C01855107400000640004000040                 
98553852Z33001TDMON10000116032023903506671C01855107500000640004000040                 
98553852B95001TDMON10000116032023903506671C01855050500000640004000040                 
98553852J98001TDMON10000116032023903506671C01855050900000640004000040                 
98553852B98001TDMON10000116032023903506671C01855051100000640004000040                 
98553852L22001TDMON10000116032023903506671C01855051200000640004000040                 
98553852D01001TDMON10000116032023903506671C01855063700000640004000040                 
98553852U19001TDMON10000116032023903506671C01855064200000640004000040                 
98553852G58001TDMON10000116032023903506671C01855070900000640004000040                 
98553852G60001TDMON10000116032023903506671C01855071100000640004000040                 
98553852K77001TDMON10000116032023903506671C01855079700000640004000040                 
98553852K80001TDMON10000116032023903506671C01855079800000640004000040                 
98553852K92001TDMON10000116032023903506671C01855080000000640004000040                 
98553852N33001TDMON10000116032023903506671C01855086800000640004000040                 
98553852N47001TDMON10000116032023903506671C01855087100000640004000040                 
98553852R63001TDMON10000116032023903506671C01855093700000640004000040                 
98553852R71001TDMON10000116032023903506671C01855093800000640004000040                 
98553852T54001TDMON10000116032023903506671C01855100700000640004000040                 
98553852T55001TDMON10000116032023903506671C01855100900000640004000040                 
98553852Z41001TDMON10000116032023903506671C01855107600000640004000040                 
98553852S64001DD27260000617032023903506671C01855169300000640004000100                 
98553852R64001TDMON20000116032023903506671C01855040700000640004000040                 
98553852A39001TDMON10000116032023903506671C01855040800000640004000040                 
98553852C22001TDMON10000116032023903506671C01855040900000640004000040                 
98553852A48001TDMON10000116032023903506671C01855041100000640004000040                 
98553852C06001TDMON10000116032023903506671C01855051300000640004000040                 
98553852C09001TDMON10000116032023903506671C01855051600000640004000040                 
98553852L35001TDMON10000116032023903506671C01855051700000640004000040                 
98553852V09001TDMON10000116032023903506671C01855064400000640004000040                 
98553852D17001TDMON10000116032023903506671C01855064500000640004000040                 
98553852G63001TDMON10000116032023903506671C01855071200000640004000040                 
98553852K94001TDMON10000116032023903506671C01855080100000640004000040                 
98553852K95001TDMON10000116032023903506671C01855080200000640004000040                 
98553852L01001TDMON10000116032023903506671C01855080500000640004000040                 
98553852N57001TDMON10000116032023903506671C01855087400000640004000040                 
98553852N63001TDMON10000116032023903506671C01855087700000640004000040                 
98553852T64001TDMON10000116032023903506671C01855101100000640004000040                 
98553852T69001TDMON10000116032023903506671C01855101200000640004000040                 
98553852T77001TDMON10000116032023903506671C01855101500000640004000040                 
98553852C81001TDMON10000116032023903506671C01855041400000640004000040                 
98553852C14001TDMON10000116032023903506671C01855051800000640004000040                 
98553852C15001TDMON10000116032023903506671C01855052000000640004000040                 
98553852L81001TDMON10000116032023903506671C01855052100000640004000040                 
98553852D18001TDMON10000116032023903506671C01855064700000640004000040                 
98553852V47001TDMON10000116032023903506671C01855064800000640004000040                 
98553852V73001TDMON10000116032023903506671C01855065000000640004000040                 
98553852G85001TDMON10000116032023903506671C01855071600000640004000040                 
98553852G87001TDMON10000116032023903506671C01855071700000640004000040                 
98553852G89001TDMON10000116032023903506671C01855071900000640004000040                 
98553852L18001TDMON10000116032023903506671C01855080700000640004000040                 
98553852L21001TDMON10000116032023903506671C01855080800000640004000040                 
98553852O04001TDMON10000116032023903506671C01855088100000640004000040                 
98553852R89001TDMON10000116032023903506671C01855094300000640004000040                 
98553852R90001TDMON10000116032023903506671C01855094400000640004000040                 
98553852T78001TDMON10000116032023903506671C01855101600000640004000040                 
98553852T81001TDMON10000116032023903506671C01855101700000640004000040                 
98553852C20001TDMON10000116032023903506671C01855052300000640004000040                 
98553852L99001TDMON10000116032023903506671C01855052400000640004000040                 
98553852M19001TDMON10000116032023903506671C01855052900000640004000040                 
98553852V84001TDMON10000116032023903506671C01855065200000640004000040                 
98553852X21001TDMON10000116032023903506671C01855065400000640004000040                 
98553852H07001TDMON10000116032023903506671C01855072100000640004000040                 
98553852L27001TDMON10000116032023903506671C01855081200000640004000040                 
98553852L40001TDMON10000116032023903506671C01855081400000640004000040                 
98553852O06001TDMON10000116032023903506671C01855088200000640004000040                 
98553852O09001TDMON10000116032023903506671C01855088300000640004000040                 
98553852O10001TDMON10000116032023903506671C01855088400000640004000040                 
98553852O11001TDMON10000116032023903506671C01855088500000640004000040                 
98553852S01001TDMON10000116032023903506671C01855094800000640004000040                 
98553852S06001TDMON10000116032023903506671C01855095100000640004000040                 
98553852S08001TDMON10000116032023903506671C01855095200000640004000040                 
98553852U05001TDMON10000116032023903506671C01855102000000640004000040                 
98553852U15001TDMON10000116032023903506671C01855102500000640004000040                 
98553852A57001TDMON10000116032023903506671C01855041600000640004000040                 
98553852D96001TDMON10000116032023903506671C01855041700000640004000040                 
98553852C31001TDMON10000116032023903506671C01855053700000640004000040                 
98553852D73001TDMON10000116032023903506671C01855065500000640004000040                 
98553852Y21001TDMON10000116032023903506671C01855065900000640004000040                 
98553852H35001TDMON10000116032023903506671C01855072500000640004000040                 
98553852H60001TDMON10000116032023903506671C01855072600000640004000040                 
98553852I10001TDMON10000116032023903506671C01855072800000640004000040                 
98553852L47001TDMON10000116032023903506671C01855081700000640004000040                 
98553852L49001TDMON10000116032023903506671C01855081800000640004000040                 
98553852O12001TDMON10000116032023903506671C01855088600000640004000040                 
98553852O28001TDMON10000116032023903506671C01855088800000640004000040                 
98553852O44001TDMON10000116032023903506671C01855089000000640004000040                 
98553852S16001TDMON10000116032023903506671C01855095300000640004000040                 
98553852S18001TDMON10000116032023903506671C01855095400000640004000040                 
98553852S21001TDMON10000116032023903506671C01855095600000640004000040                 
98553852U17001TDMON10000116032023903506671C01855102600000640004000040                 
98553852U18001TDMON10000116032023903506671C01855102800000640004000040                 
98553852A31001AC27030000827032023903506671C01856325600000640004000150                 
98553852D96001DD03190000514032023903506671C01854695500000640004000010                 
98553852A21001DD34160000328032023903506671C01856567100000640004000010                 
98553852X45001TDMON40000130032023903506671C01856870000000640004000040                 
98553852F91001TDMON40000130032023903506671C01856870200000640004000040                 
98553852X85001TDMON40000130032023903506671C01856870700000640004000040                 
98553852F95001TDMON40000130032023903506671C01856870900000640004000040                 
98553852W39001TDMON40000130032023903506671C01856871500000640004000040                 
98553852A46001TDMON40000130032023903506671C01856871600000640004000040                 
98553852W44001TDMON40000130032023903506671C01856872200000640004000040                 
98553852A60001TDMON40000130032023903506671C01856872400000640004000040                 
98553852G49001TDMON40000130032023903506671C01856873200000640004000040                 
98553852N20001TDMON40000130032023903506671C01856873900000640004000040                 
98553852Q58001TDMON40000130032023903506671C01856874700000640004000040                 
98553852F23001TDMON40000130032023903506671C01856875500000640004000040                 
98553852L90001TDMON40000130032023903506671C01856876200000640004000040                 
98553852N48001TDMON40000130032023903506671C01856876900000640004000040                 
98553852T43001TDMON40000130032023903506671C01856877500000640004000040                 
98553852V40001TDMON40000130032023903506671C01856878100000640004000040                 
98553852V41001TDMON40000130032023903506671C01856878500000640004000040                 
98553852L37001TDMON40000130032023903506671C01856878900000640004000040                 
98553852V80001TDMON40000130032023903506671C01856879300000640004000040                 
98553852D35001TDMON40000130032023903506671C01856868700000640004000040                 
98553852I21001TDMON40000130032023903506671C01856869300000640004000040                 
98553852F15001AC50100000321032023903506671C01855663200000640004000020                 
98553852J72001DD31870000115032023903506671C01854769500000640004000010                 
98553852S36001DIVISO0000116032023903506671C01854931400000640004000010                 
98553852E01001EST0110001516032023903506671C01855022300000640004000010                 
TRAILLER00379                                                                         
